:100000000C94C3140C94F0140C94F0140C94F0148D
:100010000C94F0140C94F0140C94F0140C94F01450
:100020000C94F0140C94F0140C94F0140C94F01440
:100030000C94F0140C9432F70C94F0140C94F0140B
:100040000C94F0140C94CC9B0C94F0140C94F014BD
:100050000C94F0140C94F0140C94A1B40C94A7FA22
:100060000C94F0140C94526D0C94F0140C94F01445
:100070000C94F0140C94F0140C94F0140C94F014F0
:100080000C94F0140C94F0140C94F0140C94F014E0
:100090000C94F0140C94F0140C94F0140C9425F5BA
:1000A0000C94F0140C94F0140C94F0140C94F014C0
:1000B0000C94F0140C94F0140C94F0140C94F014B0
:1000C0000C94F0140C94F0140C94F0140C94F014A0
:1000D0000C94F0140C94F0140C94F0140C94F01490
:1000E0000C94F014DEF577F577F577F577F577F57D
:1000F00077F577F5E8F577F577F577F577F577F52F
:1001000077F577F5E8F577F577F577F577F577F51E
:1001100077F577F5F0F577F577F577F577F577F506
:1001200077F577F504F677F577F577F577F577F5E1
:1001300077F577F5F0F577F577F577F577F577F5E6
:1001400077F577F5A6F577F577F577F577F577F520
:1001500077F577F5B3F577F577F577F577F577F503
:1001600077F577F59FF577F577F577F577F577F507
:1001700077F577F534F677F577F577F577F577F561
:1001800077F577F593F577F577F577F577F577F5F3
:1001900077F577F5BCF577F577F577F577F577F5BA
:1001A00077F577F5D5F577F577F577F577F577F591
:1001B00077F577F5D5F577F577F577F577F577F581
:1001C00077F577F5D5F577F577F577F577F577F571
:1001D00077F577F5D5F577F577F577F577F577F561
:1001E00077F577F58AF577F577F577F577F577F59C
:1001F00077F577F58FF577F577F577F577F577F587
:1002000077F577F58AF577F577F577F577F577F57B
:1002100077F577F58FF577F577F577F577F577F566
:1002200077F577F50FF677F577F577F577F577F5D5
:1002300077F577F54DF577F577F577F577F577F588
:1002400077F577F54DF577F577F577F577F577F578
:1002500077F577F562F577F577F577F577F577F553
:1002600077F577F52EF677F577F577F577F577F576
:1002700077F577F52EF6084AD73B3BCE016E84BC66
:10028000BFFDC12F3D6C74319ABD56833DDA3D00F0
:10029000C77F11BED9E4BB4C3E916BAAAABE000039
:1002A00000803F05A84CCDB2D44EB93836A9020C17
:1002B00050B9918688083CA6AAAA2ABE00000080F0
:1002C0003F4D383420582059205A20450043616E54
:1002D0006E6F7420656E74657220737562646972E6
:1002E0003A20004572726F723A006572726F722026
:1002F00077726974696E6720746F2066696C650037
:100300004572726F723A006572726F72207772690D
:1003100074696E6720746F2066696C65004572723F
:100320006F723A006572726F722077726974696ECB
:100330006720746F2066696C65004572726F723A4F
:10034000006572726F722077726974696E672074CB
:100350006F2066696C65004572726F723A004D32AB
:1003600034004D3233202573006175746F25692E7A
:1003700067006572726F722077726974696E6720A8
:10038000746F2066696C65004572726F723A004E38
:100390006F74205344207072696E74696E67006FC9
:1003A0006B002F005344207072696E74696E672071
:1003B0006279746520006F6B0044656C6574696FC9
:1003C0006E206661696C65642C2046696C653A2014
:1003D000004572726F723A0046696C652064656C04
:1003E000657465643A006F6B006F70656E206661BE
:1003F000696C65642C2046696C653A200045727210
:100400006F723A006F70656E206661696C65642C6E
:100410002046696C653A20004572726F723A005747
:10042000726974696E6720746F2066696C653A2022
:10043000006F6B006F70656E206661696C65642C7F
:100440002046696C653A20004572726F723A00204E
:1004500053697A653A200046696C65206F70656E55
:1004600065643A20006F6B006F70656E206661698D
:100470006C65642C2046696C653A20004572726F89
:10048000723A00747279696E6720746F2063616CD0
:100490006C207375622D67636F64652066696C6597
:1004A00073207769746820746F6F206D616E792096
:1004B0006C6576656C732E204D4158206C657665B1
:1004C0006C2069733A004572726F723A005344208F
:1004D00063617264206F6B006F6B006F70656E52AA
:1004E0006F6F74206661696C6564004572726F722B
:1004F0003A00766F6C756D652E696E697420666161
:10050000696C6564004572726F723A0053442069E9
:100510006E6974206661696C004572726F723A0090
:1005200043616E6E6F74206F70656E2073756264C8
:100530006972004572726F723A006563686F3A20A3
:1005400000256920686F757273202569206D696EBA
:100550007574657300506F776572206F6E207469D3
:100560006D653A006563686F3A200046696C616D9D
:10057000656E742073657474696E67733A2044699C
:100580007361626C6564006563686F3A20002020C7
:100590004D3230302054312044006563686F3A207A
:1005A0000020204D3230302044006563686F3A20CF
:1005B0000046696C616D656E742073657474696E54
:1005C00067733A006563686F3A2000204400204951
:1005D0000020500020204D333031204500656368F5
:1005E0006F3A20005049442073657474696E6773D4
:1005F0003A006563686F3A200020284D6174657287
:1006000069616C2047554D2900204600204200209A
:10061000204D313435204D322048006563686F3AF3
:10062000200020284D6174657269616C204142533D
:10063000290020460020420020204D313435204D35
:10064000312048006563686F3A200020284D6174AE
:10065000657269616C20504C41290020460020429F
:100660000020204D313435204D302048006563682E
:100670006F3A20004D6174657269616C2068656134
:1006800074757020706172616D65746572733A0083
:100690006563686F3A200020590020580020204DE3
:1006A0003231382054006563686F3A2000486F7417
:1006B000656E64206F666673657420286D6D293AD7
:1006C000006563686F3A2000205A002059002020FE
:1006D0004D3230362058006563686F3A2000486F0D
:1006E0006D65206F666673657420286D6D293A000C
:1006F0006563686F3A2000204500205A00205800AA
:1007000020420020540020204D3230352053006517
:1007100063686F3A2000416476616E636564207699
:1007200061726961626C65733A20533D4D696E2058
:10073000666565647261746520286D6D2F73292C60
:1007400020543D4D696E2074726176656C2066653B
:1007500065647261746520286D6D2F73292C2042A9
:100760003D6D696E696D756D207365676D656E743D
:100770002074696D6520286D73292C20583D6D61AA
:1007800078696D756D205859206A65726B20286DE7
:100790006D2F73292C20205A3D6D6178696D756D20
:1007A000205A206A65726B20286D6D2F73292C20CA
:1007B00020453D6D6178696D756D2045206A6572D3
:1007C0006B20286D6D2F7329006563686F3A2000D8
:1007D00020540020520020204D323034205000653B
:1007E00063686F3A2000416363656C657261746988
:1007F0006F6E733A20503D7072696E74696E672C2B
:1008000020523D7265747261637420616E6420547D
:100810003D74726176656C006563686F3A200020F4
:100820004531205300204530205300205A002059E4
:100830000020204D3230312058006563686F3A2027
:10084000004D6178696D756D20416363656C6572FB
:100850006174696F6E20286D6D2F7332293A0065BF
:1008600063686F3A20002045312000202045302069
:10087000006563686F3A2000526574726163746941
:100880006F6E2053746570732070657220756E6989
:10089000743A006563686F3A2000204531205300A8
:1008A000204530205300205A0020590020204D328E
:1008B00030332058006563686F3A20004D617869D5
:1008C0006D756D2066656564726174657320286D51
:1008D0006D2F73293A006563686F3A200020453117
:1008E000205300204530205300205A00205900207A
:1008F000204D39322058006563686F3A20005374E8
:100900006570732070657220756E69743A00656356
:10091000686F3A200048617264636F6465642044C4
:10092000656661756C742053657474696E677320B5
:100930004C6F61646564006563686F3A20002062F3
:100940007974657329002073746F72656420736510
:100950007474696E67732072657472696576656414
:100960002028006563686F3A2000206279746573FF
:10097000290053657474696E67732053746F7265D0
:10098000642028006563686F3A20004572726F72B8
:100990002077726974696E6720746F2045455052E4
:1009A0004F4D21004572726F723A004D3232312044
:1009B000496E76616C6964206578747275646572DD
:1009C00020004D32313820496E76616C69642065B3
:1009D0007874727564657220004D31303920496E2B
:1009E00076616C6964206578747275646572200044
:1009F0004D31303520496E76616C696420657874BC
:100A0000727564657220004D31303420496E766114
:100A10006C69642065787472756465722000457233
:100A2000726F723A0053544F505045442E20002F9D
:100A30002F616374696F6E3A7061757365005072EF
:100A4000696E7465722073746F707065642064756C
:100A50006520746F206572726F72732E20466978FC
:100A600020746865206572726F7220616E642075F3
:100A70007365204D39393920746F20726573746144
:100A800072742E202854656D70657261747572657C
:100A90002069732072657365742E20536574206914
:100AA0007420616674657220726573746172746912
:100AB0006E6729004572726F723A004B494C4C4583
:100AC000442E20005072696E7465722068616C74E7
:100AD00065642E206B696C6C28292063616C6C65E1
:100AE0006421004572726F723A0020746F6F206C3F
:100AF0006F6E6720657874727573696F6E2070729F
:100B00006576656E746564004572726F723A002096
:100B1000636F6C6420657874727573696F6E207092
:100B2000726576656E746564004572726F723A0024
:100B3000204200205000204E006F6B00526573650C
:100B40006E643A002200556E6B6E6F776E20636F95
:100B50006D6D616E643A2022004572726F723A00C8
:100B60006563686F3A2000536C6565702E2E2E0009
:100B70004732382058302059300A47342050300A44
:100B800047342050300A473420503000202D2D4C5F
:100B90004556454C20504C415445205343524950F2
:100BA000542D2D006563686F3A2000FFFFFF0000A1
:100BB0002C4300003E430000484354686520486FC2
:100BC0006D696E672042756D70204665656472615F
:100BD00074652044697669736F722063616E6E6F0D
:100BE00074206265206C657373207468616E2031B7
:100BF000004572726F723A000000A0400000A040F1
:100C0000000000400000A0C0000000000000000044
:100C10000000A0C00000000000000000000027430A
:100C200000003E43000048434D65746167726F7376
:100C3000732072656164792E00526573756D696EFB
:100C400067207072696E74005761697420666F72F4
:100C500020757365722E2E2E004E6F206D6F766597
:100C60002E00456E642066696C65206C69737400A3
:100C7000426567696E2066696C65206C69737400F3
:100C80006563686F3A20002569206D696E2C202508
:100C90006920736563004D65746167726F737320BB
:100CA0004F66662E002042403A0020403A00202F36
:100CB000003A00205400202F0020423A00202F004C
:100CC00020543A006F6B0048656174696E672E2E80
:100CD0002E0048656174696E6720646F6E652E0032
:100CE0003F0020573A0020453A00543A004445421C
:100CF00055472044525952554E20454E41424C458D
:100D000044006563686F3A200044454255472045DA
:100D100043484F20454E41424C4544006563686F4F
:100D20003A2000205A3A0020593A0020436F756E4D
:100D30007420583A200020453A00205A3A002059A1
:100D40003A00583A006563686F3A2000205A3A002A
:100D500020593A0020436F756E7420583A200020C5
:100D6000453A00205A3A0020593A0020583A006F7C
:100D70006B004649524D574152455F4E414D453AF1
:100D80004D61726C696E4B696D6272612056343BC5
:100D9000204649524D574152455F55524C3A68746E
:100DA0007470733A2F2F6769746875622E636F6D64
:100DB0002F4D61676F4B696D6272612F4D61726C6F
:100DC000696E4B696D6272612050524F544F434FB0
:100DD0004C5F56455253494F4E3A312E30204D41CB
:100DE0004348494E455F545950453A4D65746167D3
:100DF000726F73732045585452554445525F434FA8
:100E0000554E543A3220555549443A3030303030FE
:100E10003030302D303030302D303030302D3030DB
:100E200030302D3030303030303030303030300AEB
:100E3000007A5F6D696E3A2000795F6D696E3A20C5
:100E400000785F6D696E3A20006563686F3A200034
:100E50004265642048656174696E672E004265646E
:100E600020646F6E652E0020423A0020453A0054FF
:100E70003A004D32303020496E76616C69642065ED
:100E80007874727564657220004572726F723A00F0
:100E900053657474696E672054726176656C204185
:100EA0006363656C65726174696F6E3A2000656397
:100EB000686F3A200053657474696E6720526574D8
:100EC0007261637420416363656C65726174696FFC
:100ED0006E3A20006563686F3A2000536574746948
:100EE0006E67205072696E7420416363656C657231
:100EF0006174696F6E3A20006563686F3A20005331
:100F0000657474696E67205072696E7420616E64D6
:100F10002054726176656C20416363656C65726113
:100F200074696F6E3A20006563686F3A20002C0088
:100F30002000486F74656E64206F66667365747315
:100F40003A006563686F3A2000496E76616C6964A7
:100F5000206578747275646572004572726F723ABA
:100F60000020643A0020693A0020703A0020653A77
:100F7000006563686F3A20004D33303020533635BA
:100F80003920503230300A4D333030205336393822
:100F90002050323030004F66667365742061707087
:100FA0006C6965642E004F666673657420617070AD
:100FB0006C6965642E006563686F3A20004D3330BC
:100FC00030205334302050323030004572723A2095
:100FD000546F6F206661722100546F6F20666172DA
:100FE0002066726F6D207265666572656E6365203E
:100FF000706F696E74004572726F723A005A7A7A35
:101000007A205A7A7A7A205A7A7A7A004368616E1C
:1010100067652066696C616D656E74004163746913
:1010200076652045787472756465723A2000656350
:10103000686F3A2000496E76616C69642065787447
:1010400072756465720054006563686F3A200065CC
:1010500063686F3A2000256920686F7572732025D8
:1010600069206D696E7574657300446F6E652070DC
:1010700072696E74696E672066696C650065636885
:101080006F3A200053544F505045442E2000507268
:10109000696E7465722073746F7070656420647516
:1010A0006520746F206572726F72732E20466978A6
:1010B00020746865206572726F7220616E6420759D
:1010C0007365204D39393920746F207265737461EE
:1010D00072742E202854656D706572617475726526
:1010E0002069732072657365742E205365742069BE
:1010F00074206166746572207265737461727469BC
:101100006E6729004572726F723A004E6F204C690B
:101110006E65204E756D6265722077697468206314
:101120006865636B73756D2C204C617374204C691A
:101130006E653A20004572726F723A004E6F20431E
:101140006865636B73756D2077697468206C696E70
:1011500065206E756D6265722C204C617374204C35
:10116000696E653A20004572726F723A0063686575
:10117000636B73756D206D69736D617463682C208A
:101180004C617374204C696E653A20004572726F31
:10119000723A004C696E65204E756D626572206909
:1011A00073206E6F74204C617374204C696E6520DF
:1011B0004E756D6265722B312C204C617374204C1E
:1011C000696E653A20004572726F723A004D313196
:1011D000300077616974006F6B00446F6E65207337
:1011E0006176696E672066696C652E004D32390044
:1011F00020506C616E6E65724275666665724279EA
:101200007465733A20002046726565204D656D6FE8
:1012100072793A20006563686F3A2000204C617350
:101220007420557064617465643A204A756E20209C
:101230003220323031352031333A35333A353420AB
:101240007C20417574686F723A20286E6F6E652C31
:101250002064656661756C7420636F6E66696729CA
:10126000436F6D70696C65643A204A756E20203258
:101270002032303135006F6B004D61726C696E4BFE
:10128000696D62726120342E312E320020536F66F8
:10129000747761726520526573657400536F6D6574
:1012A0007468696E672069732077726F6E672C208F
:1012B000706C65617365207475726E206F66662050
:1012C000746865207072696E7465722E00204272B7
:1012D0006F776E206F7574205265736574002045BA
:1012E000787465726E616C20526573657400506F1E
:1012F000776572557000737461727400656E7175F4
:10130000657565696E672022006563686F3A200025
:1013100020746F6F206C6F6E6720657874727573C0
:10132000696F6E2070726576656E746564006F6BB0
:101330000020636F6C6420657874727573696F6EDA
:101340002070726576656E746564006F6B007C3C1E
:101350003E5E2B3D3F2F5B5D3B2C2A225C004530DF
:101360003A006F6B005A3A006F6B00593A006F6B8E
:1013700000583A004D53312C4D53322050696E7352
:10138000006F6B004D383420582059205A204500FA
:1013900024F404D9201BC40C5C0E9804C4095F0219
:1013A00065077101F405F900FB04B30048048700E8
:1013B000C10369005803550003034500BE023A000B
:1013C0008402310053022A00290225000402200071
:1013D000E4011C00C8011900AF01170098011400B6
:1013E00084011300710110006101100051010E0011
:1013F00043010D0036010B002B010B0020010B00F7
:10140000150109000C01090003010800FB00080098
:10141000F3000800EB000700E4000600DE00060011
:10142000D8000600D2000600CC000500C700050069
:10143000C2000500BD000400B9000400B5000400AE
:10144000B1000400AD000400A9000400A5000300E1
:10145000A20003009F0004009B000300980003000B
:101460009500020093000300900003008D0002002D
:101470008B00030088000200860002008400030045
:10148000810002007F0002007D0002007B0002005C
:10149000790002007700010076000200740002006B
:1014A00072000100710002006F0002006D00010077
:1014B0006C0002006A000100690002006700010080
:1014C0006600010065000100640002006200010086
:1014D00061000100600001005F0002005D0001008A
:1014E0005C0001005B0001005A000100590001008E
:1014F000580001005700010056000100550001008E
:10150000540001005300000053000100520001008C
:1015100051000100500001004F0001004E0000008A
:101520004E0001004D0001004C0001004B00000086
:101530004B0001004A000100490001004800000082
:10154000480001004700010046000000460001007D
:101550004500000045000100440001004300000078
:101560004300010042000000420001004100000071
:1015700041000100400001003F0000003F00010069
:101580003E0000003E0001003D0000003D00010063
:101590003C0000003C0000003C0001003B0000005B
:1015A0003B0001003A0000003A0001003900000051
:1015B0003900010038000000380000003800010048
:1015C0003700000037000100360000003600000040
:1015D0003600010035000000350000003500010034
:1015E000340000003400000034000100330000002B
:1015F0003300000033000100320000003200000020
:101600003200010031000000310000003100010013
:101610003000000030000000300001002F0000000A
:101620002F0000002F0000002F0001002E000000FE
:101630002E0000002E0001002D0000002D000000F3
:101640002D0000002D0001002C0000002C000000E7
:101650002C0000002C0001002B0000002B000000DB
:101660002B0000002B0001002A0000002A000000CF
:101670002A0000002A0001002900000029000000C3
:1016800029000000290000002900010028000000B6
:1016900028000000280000002800000028000100A9
:1016A000270000002700000027000000270000009E
:1016B0002700010026000000260000002600000090
:1016C0002600000026000100250000002500000083
:1016D0002500000025000000250000002500010075
:1016E000240000002400000024000000240000006A
:1016F000240001002300000023000000230000005C
:10170000230000002300000023000000230001004C
:101710002200000022000000220000002200000041
:101720002200000022000100210000002100000032
:101730002100000021000000210000002100000025
:101740002100010020000000200000002000000017
:101750002000000020000000200000002000000009
:10176000200001001F0000001F0000001F000000FB
:101770001F0000001F0000001F0000001F000100EC
:101780001E0000001E0000001E0000001E000000E1
:1017900024F4D43050C38E20C2A24017828B701123
:1017A000127A910D816CD90AA861E108C7586607C1
:1017B000615143061E4B5D05C145A7041A41110442
:1017C000093D9803713931034036DB0265339102DC
:1017D000D4305402802E1D02632CEE01752AC501FF
:1017E000B028A001102781018F2564012B244B0113
:1017F000E0223401AC211F018D200D01801FFC006F
:10180000841EED00971DDF00B81CD200E61BC60049
:10181000201BBC00641AB200B219A8000A19A0006B
:101820006A189900D117910040178B00B5168400F3
:1018300031167E00B31579003A157300C7146F0096
:1018400058146A00EE1366008813630025135E00C7
:10185000C7125B006C12570015125400C1115100E1
:1018600070114F0021114B00D61049008D10470018
:101870004610440002104200C00F4000800F3E009E
:10188000420F3C00060F3B00CB0E3800930E370092
:101890005C0E3500270E3400F30D3200C10D31000F
:1018A000900D3000600D2E00320D2D00050D2C0026
:1018B000D90C2B00AE0C2900850C29005C0C2700EC
:1018C000350C27000E0C2600E80B2400C40B240066
:1018D000A00B23007D0B23005A0B2100390B2100A4
:1018E000180B2000F80A1F00D90A1E00BB0A1E00B0
:1018F0009D0A1D00800A1D00630A1C00470A1B0088
:101900002C0A1B00110A1A00F7091A00DD09190038
:10191000C4091900AB091900920917007B091800C6
:10192000630917004C091600360916002009160035
:101930000A091500F5081500E0081400CC08140089
:10194000B8081400A4081400900813007D081200C1
:101950006B081300580812004608120034081100E2
:10196000230811001208110001081100F0071000EF
:10197000E0071000D0071000C0071000B0070F00EC
:10198000A107100091070E0083070F0074070F00D6
:1019900065070E0057070E0049070E003B070D00B4
:1019A0002E070E0020070D0013070D0006070D007F
:1019B000F9060C00ED060D00E0060C00D4060C0044
:1019C000C8060C00BC060C00B0060C00A4060B00F8
:1019D00099060C008D060B0082060B0077060B00A3
:1019E0006C060B0061060A0057060B004C060A0045
:1019F00042060A0038060A002E060A0024060A00DB
:101A00001A060A001006090007060A00FD0509006B
:101A1000F4050900EB050900E2050900D9050900F4
:101A2000D0050900C7050900BE050900B505080075
:101A3000AD050800A50509009C05080094050800EF
:101A40008C050800840508007C0508007405080062
:101A50006C050700650508005D05070056050800D0
:101A60004E05070047050700400508003805070038
:101A7000310507002A050700230507001C0506009D
:101A8000160507000F0507000805060002050700F8
:101A9000FB040600F5040700EE040600E804060057
:101AA000E2040700DB040600D5040600CF040600AC
:101AB000C9040600C3040600BD040600B7040600FE
:101AC000B1040500AC040600A6040600A00405004D
:101AD0009B04060095040500900406008A04050096
:101AE00085040500800406007A04050075040500DD
:101AF000700405006B040500660405006104050020
:101B00005C04050057040500520405004D0405005F
:101B100048040500430405003E0404003A0405009F
:101B200035040500300404002C04050027040400DB
:101B3000230405001E0404001A0404001604050012
:101B4000110404000D040400090405000404040049
:101B500000040400FC030400F8030400F403040080
:101B6000F0030400EC030400E8030400E4030400B1
:101B7000E0030400DC030400D8030400D4030400E1
:101B8000D0030400CC030400C8030300C503030012
:101B9000656E6473746F7073206869743A205A00BC
:101BA000205A3A00656E6473746F707320686974AC
:101BB0003A20590020593A00656E6473746F70734F
:101BC000206869743A20580020583A00656E6473A2
:101BD000746F7073206869743A20006F6B0054480A
:101BE00045524D414C2052554E4157415900626576
:101BF0006400546865726D616C2052756E61776126
:101C0000792C2073797374656D2073746F707065AF
:101C10006421204865617465725F49443A2000453B
:101C200072726F723A00202D20496E76616C696481
:101C3000206578747275646572206E756D62657268
:101C40002021004572726F723A001000A103400219
:101C50002B017004F600A006D900D008C600000BC6
:101C6000B800300DAD00600FA30090119A00C013B2
:101C70009300F0158C0020188600501A8000801CFC
:101C80007A00B01E7500E020700010236B00402524
:101C9000660070276100A0295B00D02B5600002E43
:101CA000510030304C006032460090343F00C03666
:101CB0003800F0383000203B2600503D1700D03E61
:101CC0000500803F00004572723A204D415854454E
:101CD0004D5020424544004865617465642062654A
:101CE00064207377697463686564206F66662E206C
:101CF0004D415854454D502074726967676572654F
:101D000064202121004572726F723A004572723A66
:101D1000204D494E54454D50003A20457874727517
:101D2000646572207377697463686564206F6666A2
:101D30002E204D494E54454D502074726967676599
:101D40007265642021004572723A204D4158544515
:101D50004D50003A2045787472756465722073772F
:101D6000697463686564206F66662E204D4158541F
:101D7000454D502074726967676572656420212142
:101D80000023646566696E652044454641554C54A0
:101D90005F6265644B6420006563686F3A200023CE
:101DA000646566696E652044454641554C545F62E2
:101DB00065644B6920006563686F3A2000236465A1
:101DC00066696E652044454641554C545F626564C2
:101DD0004B7020006563686F3A2000204B643A2006
:101DE00000204B693A2000204B703A200065636860
:101DF0006F3A2000504944204175746F74756E65C8
:101E00002066696E6973686564212050757420745A
:101E10006865206C617374204B702C204B692061C5
:101E20006E64204B6420636F6E7374616E747320F4
:101E300066726F6D2061626F766520696E746F20C7
:101E4000436F6E66696775726174696F6E2E682084
:101E50006F722073656E6420636F6D6D616E6420B8
:101E60004D35303020666F72207361766520696E63
:101E700020454550524F4D20746865206E6577208F
:101E800076616C756521006563686F3A2000504982
:101E900044204175746F74756E65206661696C6568
:101EA00064212074696D656F7574004572726F727C
:101EB0003A0020403A0020543A006F6B0020403A2C
:101EC0000020423A006F6B00504944204175746F06
:101ED00074756E65206661696C6564212054656D5A
:101EE000706572617475726520746F6F20686967C0
:101EF00068004572726F723A00204B643A200020ED
:101F00004B693A2000204B703A200020436C6173EB
:101F10007369632050494420002054753A20002002
:101F20004B753A2000206D61783A2000206D696E73
:101F30003A200020643A200020626961733A200050
:101F4000204379636C65733A20002054656D703AC4
:101F50002000486F74656E643A20006563686F3ACC
:101F60002000424544006563686F3A2000504944B0
:101F7000204175746F74756E65207374617274009E
:101F80006563686F3A2000504944204175746F744E
:101F9000756E65206661696C65642120426164200C
:101FA0006578747275646572206E756D6265720015
:101FB0004572726F723A001000C90210012C014084
:101FC00001220170011801B0010E01F0010401505D
:101FD00002FA00B002F0003003E600D003DC00900B
:101FE00004D2007005C800A006BE000008B400B00E
:101FF00009AA00D00BA000600E960060118C0000B2
:1020000015820020197800C01D6E00A0226400B067
:10201000275A00902C500000314600E0343C00105C
:10202000383200903A2800603C1E00A03D14008029
:102030003E0A00203F00002D2D3A2D2D002D2D2D84
:10204000005344000120000120000120004D3231E6
:1020500000496E69742E2053442063617264004EFF
:102060006F2053442063617264004D323100436835
:10207000616E676520534420636172640050726929
:102080006E742066726F6D2053440053746F70201D
:102090007072696E7400526573756D652070726937
:1020A0006E74005061757365207072696E740043C0
:1020B0006F6E74726F6C005072657061726500545F
:1020C000756E6500496E666F2073637265656E009C
:1020D0005072696E742066726F6D205344005072A6
:1020E000696E742066726F6D20534400052E2E00B9
:1020F0000452656672657368004D61696E004D3209
:1021000034004D323320257300526573746F72654D
:10211000206661696C73616665004C6F6164206D57
:10212000656D6F72790053746F7265206D656D6FA8
:1021300072790046696C616D656E74004D6F7469EB
:102140006F6E0054656D7065726174757265004DD7
:1021500061696E0046696C2E204469612E20320050
:1021600046696C2E204469612E20320046696C2E2F
:10217000204469612E20310046696C2E204469613B
:102180002E2031004F6666004F6E20004520696E9C
:10219000206D6D3300436F6E74726F6C004531209B
:1021A00073746570732F6D6D0045312073746570A5
:1021B000732F6D6D0045302073746570732F6D6DD6
:1021C0000045302073746570732F6D6D005A207355
:1021D000746570732F6D6D005A2073746570732F62
:1021E0006D6D00592073746570732F6D6D005920EB
:1021F00073746570732F6D6D005820737465707300
:102200002F6D6D00582073746570732F6D6D0041D4
:102210002D74726176656C00412D74726176656C07
:1022200000412D7265747261637400412D72657492
:102230007261637400416D6178206500416D617861
:10224000206500416D6178207A00416D6178207AC7
:1022500000416D6178207900416D617820790041FD
:102260006D6178207800416D617820780056547255
:102270006176206D696E005654726176206D696ECC
:1022800000566D696E00566D696E00566D6178205E
:102290006500566D6178206500566D6178207A0082
:1022A000566D6178207A00566D6178207900566D00
:1022B0006178207900566D6178207800566D6178DC
:1022C00020780056652D6A65726B0056652D6A652B
:1022D000726B00567A2D6A65726B00567A2D6A65AC
:1022E000726B005678792D6A65726B005678792D7D
:1022F0006A65726B00416363656C00416363656C82
:1023000000436F6E74726F6C005072656865617423
:102310002047554D20636F6E660050726568656199
:10232000742041425320636F6E6600507265686589
:10233000617420504C4120636F6E66005049442DFB
:1023400044204532005049442D4420453200504934
:10235000442D49204532005049442D492045320042
:102360005049442D50204532005049442D502045BD
:1023700032005049442D44005049442D44005049F6
:10238000442D49005049442D49005049442D5000E6
:102390005049442D50002002204661637400200201
:1023A0002046616374002002204D617800200220E5
:1023B0004D6178002002204D696E002002204D6999
:1023C0006E004F6666004F6E20004175746F746535
:1023D0006D700046616E2073706565640046616EC5
:1023E0002073706565640042656400426564004E58
:1023F0006F7A7A6C652032004E6F7A7A6C65203283
:10240000004E6F7A7A6C65004E6F7A7A6C65004385
:102410006F6E74726F6C0053746F7265206D656DB2
:102420006F72790042656400426564004E6F7A7A8B
:102430006C65004E6F7A7A6C650046616E20737031
:102440006565640046616E2073706565640054655F
:102450006D70657261747572650053746F7265207A
:102460006D656D6F72790042656400426564004E6F
:102470006F7A7A6C65004E6F7A7A6C650046616E91
:102480002073706565640046616E207370656564D5
:102490000054656D70657261747572650053746F78
:1024A0007265206D656D6F727900426564004265EA
:1024B00064004E6F7A7A6C65004E6F7A7A6C6500B4
:1024C00046616E2073706565640046616E207370AE
:1024D0006565640054656D70657261747572650040
:1024E000436F6F6C646F776E0050726568656174DE
:1024F0002047554D00507265686561742041425314
:10250000005072656865617420504C41004D38344C
:102510000044697361626C652073746570706572E4
:1025200073004D6F766520617869730042656420A1
:1025300053657474696E670053657420686F6D65C8
:10254000206F66667365747300426564205365741A
:1025500074696E6700473238004175746F20686F88
:102560006D65004D61696E0050726568656174202B
:1025700047554D204265640050726568656174205E
:1025800047554D20416C6C00507265686561742040
:1025900047554D203200507265686561742047557B
:1025A0004D2031005072657061726500507265682F
:1025B0006561742041425320426564005072656831
:1025C0006561742041425320416C6C005072656813
:1025D0006561742041425320320050726568656124
:1025E0007420414253203100507265706172650061
:1025F0005072656865617420504C412042656400EA
:102600005072656865617420504C4120416C6C00CB
:102610005072656865617420504C412032005072E0
:10262000656865617420504C4120310050726570BE
:10263000617265004D6F766520302E316D6D004DF5
:102640006F766520316D6D004D6F76652031306D90
:102650006D005072657061726500457874727564C2
:102660006572004D6F7665205A004D6F7665205972
:10267000004D6F76652058004D6F76652061786952
:1026800073004578747275646572005A0059005879
:10269000004D363030004368616E67652066696CB6
:1026A000616D656E7400466C6F77203100466C6F0B
:1026B00077203100466C6F77203000466C6F7720B2
:1026C000300046616E2073706565640046616E205F
:1026D00073706565640042656400426564004E6F16
:1026E0007A7A6C652032004E6F7A7A6C65203200FF
:1026F0004E6F7A7A6C65004E6F7A7A6C6500537013
:10270000656564005370656564004D61696E002005
:10271000424544206C6576656C656421002020206C
:1027200020204973206974206F6B3F2020202020D7
:1027300020202020507265737320746F20656E64B2
:10274000002041646A75737420666F757274682026
:10275000706F696E742026205072657373207468E0
:102760006520627574746F6E002041646A757374BD
:1027700020746869726420706F696E74202026204E
:1027800050726573732074686520627574746F6E1F
:10279000002041646A757374207365636F6E6420F2
:1027A000706F696E74202620507265737320746890
:1027B0006520627574746F6E002041646A7573746D
:1027C00020666972737420706F696E7420202620F1
:1027D00050726573732074686520627574746F6ECF
:1027E00000204C6576656C696E67206265642E2EEC
:1027F0002E20202020202020507265737320746FBB
:10280000207374617274202000473238204D004CD0
:102810006576656C696E672E2E2E004D3432380059
:102820000200002100240027002A002D0030003380
:102830000001010000040107010A01000022002537
:102840000028002B002E003100340002010000059A
:102850000108010B01000020002300260029002CA4
:10286000002F0032000001000003010601090105EC
:10287000050505070508080808020202020A0A08F9
:10288000080404040401010101010101010303031F
:102890000303030303040707070C0C0C0C0C0C0CBC
:1028A0000C0202020206060606060606060B0B0BC3
:1028B0000B0B0B0B0B0102102020080810204010FE
:1028C00020408002010201080402010102040810F4
:1028D0002040808040201008040201800402018012
:1028E000402010080402010804020101020408103B
:1028F00020408001020408102040800000090A02E4
:10290000080B0C0D07060304010000000000000086
:1029100000000000000000000000000000000000B7
:102920000000000000000011100F00000000000077
:102930000000000000000000000000000000000097
:1029400000494E46494E4954594E414ECDCCCC3D9E
:102950000AD7233C17B7D13877CC2B329595E6248C
:102960001FB14F0A000020410000C84200401C4631
:1029700020BCBE4CCA1B0E5AAEC59D744253E76DB7
:10298000B1C182F43B5311241FBECFEFD1E2DEBFB1
:10299000CDBF00E00CBF14E0A0E0B2E0ECE6F6E052
:1029A00002E00BBF02C007900D92A63BB107D9F71A
:1029B0001BBE14E1A6EBB4E001C01D92A931B10722
:1029C000E1F719E2C4E8D9E204C02297FE010F94AE
:1029D000DB02CC37D107C9F70E946CF60D942903AE
:1029E0000C940000A0E0B0E0E8EFF4E10D94F802F0
:1029F000EC015B016115710519F0FB019183808386
:102A0000F9908F2D90E00F94DF02892BC9F7FDE23A
:102A1000FF1621F4F990EE24E39405C02BE2F216A0
:102A200009F4F990EE248E0101501040C80161E4D0
:102A300079E243E050E00E948117892B01F58E0175
:102A40000E5F1F4FC80164E479E245E050E00E9448
:102A50008117892B19F48E01095F1F4FA114B1044E
:102A600019F0F50111830083E0FC04C070E090E0F0
:102A700080E814C070E090E080E86FEF08C1C80102
:102A800069E479E243E050E00E948117892B69F400
:102A9000A114B10429F470E090E080EC6FE7F7C076
:102AA0002296F501D183C083F6CF8824992440E093
:102AB00050E060E070E0EF2DE053EA30A0F5F2E086
:102AC000EF2A8E2D90E09C0128703070E2FE06C047
:102AD000232B79F50894811C911C2BC0232B19F012
:102AE000089481089108DB01CA0112E0880F991F40
:102AF000AA1FBB1F1A95D1F7480F591F6A1F7B1FCA
:102B0000440F551F661F771F4E0F511D611D711D0C
:102B1000483929E9520729E9620729E1720748F093
:102B200084E0E82A06C0EE3F31F4E3FC39C098E0C7
:102B3000E92AF990C0CFE53311F0E53189F5299103
:102B40002D3219F4E0E1EE2A05C02B3219F081E0B4
:102B500090E003C0299182E090E0E22FE053EA3058
:102B600018F0C81BD90B1CC020E030E0FCE0203876
:102B70003F075CF4C901880F991F880F991F280F20
:102B8000391F220F331F2E0F311DE991E053EA3018
:102B900068F3E4FE03C0309521953F4F820E931EEB
:102BA000CE2CDD24E1FE07C0A114B10421F0219751
:102BB000F501D183C083CB01BA010E9444FF7B01A0
:102BC0008C01F3E0CF22DD2423E0C216D10421F4EE
:102BD00017FB109517F9109557016801C801B70147
:102BE00020E030E040E050E00E94A4FE882309F499
:102BF0004AC097FE0DC020E6E22E29E2F22E909404
:102C0000819491089394C0E2D0E000E010E012C0FB
:102C100098E7E92E99E2F92EF6CFF7012591359143
:102C200045915491C601B5010F9484015B016C017B
:102C30008C1A9D0A8C169D0684F7D595C7950F5F53
:102C40001F4F0630110529F08CEF9FEFE80EF91E9B
:102C5000F1CFC501D6017C018D018C2D880F8D2D02
:102C6000881F8F3F51F0C601B50120E030E040E001
:102C700050E00E94A4FE882331F482E290E0909319
:102C80001814809317147E2D9F2D802F612F272FCE
:102C9000392F482F562FB901CA01CDB7DEB7ECE066
:102CA0000D9414032F923F925F926F927F928F92B6
:102CB0009F92AF92BF92CF92DF92EF92FF920F93CB
:102CC0001F93CF93DF938C011B01EA0161157105FE
:102CD00019F0FB0191838083209749F0CE01029780
:102CE000839728F020E030E040E050E0F6C0F801A3
:102CF000A1908F018A2D90E00F94DF02892BB9F704
:102D0000FDE2AF1631F4F801A1908F0155245394E0
:102D100007C0FBE2AF1619F4F801A1908F0155240A
:102D2000209719F0C031D105C1F4F0E3AF1679F462
:102D3000F8018081883711F0883549F4F801A180C5
:102D40000E5F1F4FF2E05F2AC0E1D0E006C020977F
:102D500021F480E3A816E9F427C0C830D10531F189
:102D6000C930D10524F4C230D10531F50CC0CA30C8
:102D7000D10589F0C031D105F9F4C12CD12CE12C59
:102D8000B8E0FB2E28C0C12CD12CE12CA0E4FA2EF7
:102D900022C0CAE0D0E0FCECCF2EFCECDF2EFCEC35
:102DA000EF2EFCE0FF2E17C0C8E0D0E0C12CD12CE4
:102DB000E12CE0E1FE2E0FC09E01442737FD409537
:102DC000542F60E070E080E090E80F949C02C9010D
:102DD000DA016C017D0120E030E040E050E060E08D
:102DE0003E01882477FC8094982C70EDB72EBA0CA5
:102DF000E9E0EB1570F48A2D81548A3118F499ECCE
:102E0000B92E06C08A2D81568A3150F589EAB82E2E
:102E1000BA0C8B2D90E08C179D0714F56F3FE1F0F5
:102E2000C216D306E406F506B0F0CA01B901A40142
:102E300093010F9456029B01AC012B0D311D411DD6
:102E4000511D2130F0E03F07F0E04F07F0E85F0749
:102E500010F461E001C06FEFF801A1908F01C5CFC0
:102E60002114310481F0662331F001501040F1014A
:102E70001183008308C051FE1AC002501040F101B6
:102E80001183008314C067FF12C050FC05C02FEFF0
:102E90003FEF4FEF5FE704C020E030E040E050E854
:102EA00082E290E0909318148093171416C050FE9D
:102EB00008C050954095309521953F4F4F4F5F4F3B
:102EC0000CC057FF0AC082E290E0909318148093E0
:102ED00017142FEF3FEF4FEF5FE7B901CA01DF9102
:102EE000CF911F910F91FF90EF90DF90CF90BF9007
:102EF000AF909F908F907F906F905F903F902F90BA
:102F00000895FB01DC014150504088F08D918134DF
:102F10001CF08B350CF4805E659161341CF06B35D0
:102F20000CF4605E861B611171F3990B0895881B88
:102F3000FCCFFB01DC014150504048F005900D9260
:102F40000020C9F701C01D9241505040E0F708959C
:102F5000FB0155915523A9F0BF01DC014D914517A7
:102F60004111E1F759F4CD010590002049F04D9150
:102F700040154111C9F3FB014111EFCF81E090E011
:102F800001970895FB01DC0104C08D910190801927
:102F900021F441505040C8F7881B990B0895FB015C
:102FA000DC0102C001900D9241505040D8F70895C5
:102FB000FB01DC018D9181341CF08B350CF4805EBB
:102FC000619161341CF06B350CF4605E861B6111FD
:102FD00089F3990B0895FB01DC010D900020E9F7BE
:102FE000119701900D920020E1F70895FC01819165
:102FF000861721F08823D9F7992708953197CF01B3
:103000000895FB01DC018D91019080190110D9F325
:10301000990B0895FB01DC0101900D920020E1F76E
:103020000895FB01DC014150504030F08D9101903A
:10303000801919F40020B9F7881B990B0895FB013A
:10304000DC014150504048F001900D920020C9F73A
:1030500001C01D9241505040E0F70895AEE0B0E04D
:10306000E4E3F8E10D9400030E891F898EE08C8360
:103070001A8309838FEF9FE79E838D839E01265ECF
:103080003F4FCE010196688D798DA9010E9452189B
:103090002F813885020F131FF80110822E96E4E06D
:1030A0000D941C03ABE0B0E0E8E5F8E10D94F2020A
:1030B0003C012B015A01FC0117821682838181FD9C
:1030C00003C06FEF7FEFC6C19AE0892E1E010894FE
:1030D000211C311CF3012381F20123FD859123FF83
:1030E00081912F01882309F4B2C1853239F423FD7F
:1030F000859123FF81912F01853229F490E0B3015E
:103100000E94451AE7CF982FFF24EE249924FFE16F
:10311000FF15D0F09B3269F09C3228F4903259F0C0
:10312000933291F40EC09D3249F0903369F441E03E
:1031300024C052E0F52A84E0F82A28C098E0F92A51
:1031400025C0E0E1FE2A22C0F7FC29C0892F805368
:103150008A3070F4F6FE05C0989C902C1124980ECD
:1031600015C0E89CE02C1124E80EF0E2FF2A0EC006
:103170009E3229F4F6FC6BC140E4F42A07C09C3669
:1031800019F450E8F52A02C0983649F4F20123FDFB
:10319000959123FF91912F01992309F0B8CF892FA1
:1031A0008554833018F08052833038F444E050E086
:1031B000A40EB51E5FE359830FC0933631F09337E9
:1031C00079F0933509F056C020C0F50180818983DC
:1031D00042E050E0A40EB51E610101E010E012C013
:1031E000F501C080D180F6FC03C06FEF7FEF02C015
:1031F000692D70E042E050E0A40EB51EC6010E94A9
:103200003A1A8C015FE7F52214C0F501C080D18025
:10321000F6FC03C06FEF7FEF02C0692D70E042E063
:1032200050E0A40EB51EC6010E942F1A8C0150E872
:10323000F52AF3FE07C01AC080E290E0B3010E94B5
:10324000451AEA948E2D90E008171907A8F30EC0CE
:10325000F601F7FC8591F7FE81916F0190E0B301D3
:103260000E94451AE110EA94015010400115110521
:1032700079F7EAC0943611F0993669F5F7FE08C07F
:10328000F501208131814281538184E090E00AC0C0
:10329000F501808191819C01442737FD4095542F91
:1032A00082E090E0A80EB91E9FE6F92257FF09C000
:1032B00050954095309521953F4F4F4F5F4FE0E837
:1032C000FE2ACA01B901A1012AE030E00E94711A68
:1032D000D82ED21840C0953729F41F2D1F7E2AE022
:1032E00030E01DC01F2D197F9F3661F0903720F40C
:1032F000983509F0ACC00FC0903739F0983709F015
:10330000A6C004C028E030E00AC0106114FD1460BB
:1033100020E130E004C014FD166020E132E017FF28
:1033200008C0F501608171818281938144E050E0A1
:1033300008C0F50180819181BC0180E090E042E00D
:1033400050E0A40EB51EA1010E94711AD82ED21809
:103350008FE7F82EF122F6FE0BC05EEFF522D914AE
:1033600038F4F4FE07C0F2FC05C08FEEF82202C06C
:103370001D2D01C0192DF4FE0DC0FE01ED0DF11D36
:103380008081803319F499EEF92208C01F5FF2FEA4
:1033900005C003C08F2D867809F01F5F0F2DF3FC49
:1033A00014C0F0FE0FC01E1510F09D2C0BC09D2CFC
:1033B0009E0C911A1E2D06C080E290E0B3010E947F
:1033C000451A1F5F1E15C0F304C01E1510F4E11A44
:1033D00001C0EE2404FF0FC080E390E0B3010E941F
:1033E000451A02FF1DC001FD03C088E790E00EC032
:1033F00088E590E00BC0802F867891F001FF02C035
:103400008BE201C080E2F7FC8DE290E0B3010E9404
:10341000451A06C080E390E0B3010E94451A9A94D1
:10342000D914C0F3DA94F101ED0DF11D808190E023
:10343000B3010E94451ADD20A9F706C080E290E0A2
:10344000B3010E94451AEA94EE20C1F743CEF3017E
:1034500066817781CB012B96E2E10D940E03FC018E
:103460000590615070400110D8F7809590958E0FAF
:103470009F1F0895FC016150704001900110D8F722
:10348000809590958E0F9F1F08950F931F93CF9354
:10349000DF938C01EB018B8181FF1BC082FF0DC08C
:1034A0002E813F818C819D812817390764F4E88142
:1034B000F9810193F983E88306C0E885F985802FB7
:1034C0001995892B31F48E819F8101969F838E837C
:1034D00002C00FEF1FEFC801DF91CF911F910F9135
:1034E0000895FA01AA27283051F1203181F1E8949A
:1034F0006F936E7F6E5F7F4F8F4F9F4FAF4FB1E0E7
:103500003ED0B4E03CD0670F781F891F9A1FA11DE1
:10351000680F791F8A1F911DA11D6A0F711D811DE2
:10352000911DA11D20D009F468943F912AE0269FA7
:1035300011243019305D3193DEF6CF010895462F06
:103540004770405D4193B3E00FD0C9F7F6CF462FE7
:103550004F70405D4A3318F0495D31FD4052419350
:1035600002D0A9F7EACFB4E0A6959795879577950D
:103570006795BA95C9F700976105710508959B0194
:10358000AC010A2E06945795479537952795BA951D
:10359000C9F7620F731F841F951FA01D0895AC010A
:1035A000FB01DA0190E02EE28081803219F0983040
:1035B00041F08D939F5F31969B30B1F71C92CA0109
:1035C00008952D938081F5CFFC0112821382089516
:1035D000FC018381882311F081E082830895FC013E
:1035E0008281811112820895CF93DF93FC01BC0187
:1035F0006B557E4FDB018D919C9111970097C1F126
:1036000001978D939C939F012D583F4FEF01CC5A0A
:10361000DF4FD9018BE10D9009928150E1F7EF580E
:10362000FF4F808191817F9791838083FB0180810F
:103630009181892BE9F0D90120E030E02F5F3F4FE5
:10364000ED01AD01415E5F4FFA018BE101900992FE
:103650008150E1F75D968D919C915E9712978D93C5
:103660009C93DA01FB01808191812817390730F39F
:10367000DF91CF910895FC0184E394E091838083EE
:103680008781882309F40895CF0104960E94D38C82
:103690000895EF92FF920F931F938C013EECE32E5F
:1036A00031E0F32EE80EF91EC7010E94818CC7019C
:1036B0000E94D38CF801118210821F910F91FF900C
:1036C000EF900895AF92BF92CF92DF92EF92FF9268
:1036D0000F931F93CF93DF935C017B01DB010D9070
:1036E0000020E9F78D0101501040061B170B4EEC2E
:1036F000C42E41E0D42EC80ED91EF6011082CB0193
:103700006EE470E00E94F617EC01009709F44AC0DD
:1037100060E270E00E94F6178C010F5F1F4FCE0130
:103720006AE270E00E94F617FC0131978DE0818318
:103730008AE082831382C50186539E4FB8010E949E
:103740007295D6018C91882311F1E8E8F3E0949109
:10375000992351F031968091C00085FFFCCF909362
:10376000C60094919923B1F7E2E7F3E0949199238D
:1037700051F031968091C00085FFFCCF9093C60038
:1037800094919923B1F78AEF99E00E94F96EDF9145
:10379000CF911F910F91FF90EF90DF90CF90BF904E
:1037A000AF900895F8013197EE0DFF1D8701BECF50
:1037B000CF93DF93EC018B81882329F5EFE9F3E0C8
:1037C0009491992351F031968091C00085FFFCCFF0
:1037D0009093C60094919923B1F7EFE8F3E09491A8
:1037E000992351F031968091C00085FFFCCF9093D2
:1037F000C60094919923B1F78AEF99E00E94F96E7F
:10380000DF91CF910895E6EBF3E09491992351F085
:1038100031968091C00085FFFCCF9093C6009491B3
:103820009923B1F7E4EAF3E09491992351F03196AA
:103830008091C00085FFFCCF9093C600949199239E
:10384000B1F7CD57DD4F488159816A817B81C358DB
:10385000D2408AEF99E02AE030E00E94826EE2EAEC
:10386000F3E09491992351F031968091C00085FF47
:10387000FCCF9093C60094919923B1F7C558DD4FC2
:10388000488159816A817B818AEF99E02AE030E0A2
:103890000E94826E8AEF99E00E94F96EDF91CF91CB
:1038A0000895BF92CF92DF92EF92FF920F931F93F2
:1038B000CF93DF937C01EB018FE2899365EAC62EFB
:1038C00061E0D62ECE0CDF1CF60180819181892B20
:1038D00079F111E000E05FE1B52E0B9DC0011124EC
:1038E0008D589F4F8E0D9F1DBE010E94DD8C8881DB
:1038F000882331F407C021961F5F8881882311F047
:103900001D38C8F30F5F202F30E0F60180819181D0
:103910002817390710F317FF0BC01882DF91CF91DA
:103920001F910F91FF90EF90DF90CF90BF9008957F
:10393000C70182539E4FBE010E94DD8CEFCFCF9214
:10394000DF92EF92FF920F931F93CF93DF938C013F
:10395000FC01138286A9882309F089C0F3E3CF2EE6
:10396000D12CC00ED11EE801C955DE4FCE0160E05A
:1039700045E30E94718A882309F045C0E9E1F5E03A
:103980009491992351F031968091C00085FFFCCF2E
:103990009093C60094919923B1F7ECE0F5E09491EF
:1039A000992351F031968091C00085FFFCCF909310
:1039B000C60094919923B1F78AEF99E00E94F96EBD
:1039C000D801AC5ABF4FF6018BE101900D928150A6
:1039D000E1F7F80181A992A90E5A1F4FF8019183CE
:1039E000808302551040C8018F96025B1F4FF8017B
:1039F00091838083DF91CF911F910F91FF90EF9082
:103A0000DF90CF9008957CEAE72E71E0F72EE00E6C
:103A1000F11EC701BE0141E00E941496882309F4FB
:103A200052C0C601B7010E941990882349F5EBEEF8
:103A3000F4E09491992351F031968091C00085FF74
:103A4000FCCF9093C60094919923B1F7EBEDF4E08D
:103A50009491992309F4B0CF31968091C00085FFED
:103A6000FCCF9093C60094919923B1F7A5CFE3E3DF
:103A7000CE2ED12CC00ED11EC6010E94D38C73CF86
:103A800081E0F8018383E8EDF4E09491992351F00B
:103A900031968091C00085FFFCCF9093C600949131
:103AA0009923B1F7EDECF4E09491992309F484CFD4
:103AB00031968091C00085FFFCCF9093C600949111
:103AC0009923B1F779CFC701BE0140E00E94149657
:103AD000882309F0A6CFE5E0F5E09491992351F011
:103AE00031968091C00085FFFCCF9093C6009491E1
:103AF0009923B1F7E2EFF4E09491992309F45CCFB4
:103B000031968091C00085FFFCCF9093C6009491C0
:103B10009923B1F751CF2F923F925F926F927F928C
:103B20008F929F92AF92BF92CF92DF92EF92FF92CD
:103B30000F931F93DF93CF93CDB7DEB7CC55D04013
:103B40000FB6F894DEBF0FBECDBF4C01662309F45B
:103B5000B4C097E8C92E92E0D92EC80CD91CF60142
:103B60001082D40113968C91882309F4C9C000D027
:103B700000D0EDB7FEB731966E010894C11CD11C80
:103B8000ADB7BEB71296DC92CE92119789E693E05C
:103B900093838283D4019D968D919C919E9795836A
:103BA00084830E942E188601EDB7FEB736960FB6B5
:103BB000F894FEBF0FBEEDBF0AC0D8018C919927C3
:103BC00087FD90950F94E702F80181938F01F6012C
:103BD00001900020E9F73197EC19FD09802F8C192D
:103BE0008E175CF303E3A02EB12CA80CB91CC50101
:103BF00040E050E060E070E00E94B48B55241DE38B
:103C0000E12EF12CEC0EFD1EB6E46B2E712C6C0E29
:103C10007D1EAFE12A2E312C2C0E3D1EC501B701B1
:103C200040E050E00E94318F18160CF073C08701FD
:103C300008C0D8018C9190E00F94E702F8018193BD
:103C40008F01D7010D900020E9F71197AE19BF0938
:103C5000802F8E198A176CF3D3018C918E37F1F275
:103C6000C701B60145E050E00E9411180097B1F677
:103C700000D000D0EDB7FEB73196ADB7BEB7129603
:103C80003C922E92119782E693E093838283D582B1
:103C9000C4820E942E18ADB7BEB716960FB6F89420
:103CA000BEBF0FBEADBFC1010E945B478EE593E072
:103CB0000E943F4855245394B1CF87E8C82E82E034
:103CC000D82EC80CD91CD6018C918823B1F5C45AC2
:103CD000DF4F0FB6F894DEBF0FBECDBFCF91DF919F
:103CE0001F910F91FF90EF90DF90CF90BF90AF901A
:103CF0009F908F907F906F905F903F902F9008954E
:103D0000C4010E949F1CD40113968C91882309F052
:103D10002ECFDDCF552059F0D4019D968D919C91E9
:103D20009E9701969E969C938E939D97D0CF8FEFF2
:103D30009FEFF40196A785A7CACFEFE7F2E08E0EBA
:103D40009F1ED401ED90FD900D911C91E1E8FDEFD7
:103D50008E0E9F1E0E94EFFAE616F7060807190757
:103D600008F4B5CFFCCECF93DF93EC011BAA1EAABB
:103D70001AAA19AA44E354E058AB4FA7CC5ADF4F14
:103D8000188223961882C755D040FE01E05BFF4F92
:103D9000CE5ADF4F19821882C255D04051834083DA
:103DA000DE01A159BF4FFD0120E030E014821782EF
:103DB0001382128251834083215E3F4F7F9681E0C0
:103DC0002633380799F7C855DE4F89E18883239653
:103DD0001882689618822B96188223961882C15DE5
:103DE000D140FE01E653FE4FC453DE4F19821882C4
:103DF00051834083C155DF4F188219821A821B827A
:103E00002896188219821A821B82C358D2401A82BD
:103E10001B8218821982CB55DE4F19821882CC5B27
:103E2000DF4F1882FD01C90111920197E9F7C256CF
:103E3000DF4F81E08883C758D2401EA61DA60E948E
:103E4000EFFAC158DD4F68577C4E8F4F9F4F688304
:103E500079838A839B83DF91CF9108952F923F923C
:103E60004F925F926F927F928F929F92AF92BF928A
:103E7000CF92DF92EF92FF920F931F93DF93CF9336
:103E8000CDB7DEB7C059D0400FB6F894DEBF0FBE35
:103E9000CDBF6C012B017A01C757DF4F39832883CF
:103EA000C958D04084E090E0E80EF91E42E1642E4B
:103EB000712C6C0C7D1CF6013596C957DF4FF983C8
:103EC000E883C758D040CA57DF4F1882C658D04041
:103ED0008E010A591F4F38E8A32E32E0B32EAC0CE6
:103EE000BD1CC60186579D4FC557DF4F99838883F8
:103EF000CB58D0401E010894211C311CE7E4F0E0AF
:103F0000EC0FFD1F3496C357DF4FF983E883CD587C
:103F1000D040E3E3F5E08491C157DF4F8883CF5869
:103F2000D040E0E2F5E09491C057DF4F9883C0594C
:103F3000D0402EE0822E912C8C0E9D1EC701B80120
:103F4000A3010E94318F18160CF065C0F80183851B
:103F5000282F30E0A901487150704031510509F413
:103F600074C0F8018081882309F455C08E3231F382
:103F7000F60182898E3211F323FDE0CF80E04031DB
:103F8000510509F425C1F6018483882339F4F80129
:103F90008085873499F681858E3781F2C957DF4F46
:103FA00088819981C758D040B8010E94CF1AF50185
:103FB00080819181009709F00DC1F20190819923D0
:103FC00051F031968091C00085FFFCCF9093C600E0
:103FD00090819923B1F7F6019581992381F0C95712
:103FE000DF4FE881F981C758D04031968091C000F9
:103FF00085FFFCCF9093C60090819923B1F78AEF9B
:1040000099E00E94F96EC701B801A3010E94318FA7
:1040100018160CF49BCFC057DF4F0FB6F894DEBFD5
:104020000FBECDBFCF91DF911F910F91FF90EF9009
:10403000DF90CF90BF90AF909F908F907F906F90C8
:104040005F904F903F902F900895F501808191816E
:104050008130910509F485CF029709F482CFC1011F
:10406000B8010E94CF1A1E86F2018081882349F48C
:10407000F40101900020E9F731978FE290E09183FD
:104080008083C401B2010E94EB17C401B1010E94F8
:10409000EB17F40101900020E9F731978FE290E0EF
:1040A000918380831CA61FA61BA61AA6E4E3F4E056
:1040B000F9A7E8A7CE018C96B701A10121E00E94E3
:1040C0004E94882369F5F50180819181892B41F512
:1040D000C157DF4F9881CF58D040992309F462C06F
:1040E000E4E3F5E08091C00085FFFCCF9093C6002B
:1040F0009491992309F456C03196F4CF998199236C
:1041000059F0F10131968091C00085FFFCCF90936A
:10411000C60090819923B1F78AEF99E00E94F96E69
:10412000C357DF4FA881B981CD58D040FE01BC965E
:104130008BE101900D928150E1F78AA59BA52B960A
:104140009FAF8EAF2B9784E394E029969FAF8EAFFD
:104150002997C601B401AE01495B5F4F20E030E012
:104160000E942E1FE4E3F4E02996FFAFEEAF2997FB
:104170002F968FAD2F97882341F0C357DF4F88814B
:104180009981CD58D0400E94D38C84E394E099A7C4
:1041900088A78FA5882309F4D1CECE018C960E94E2
:1041A000D38CCCCEC057DF4F9881C059D0409923D3
:1041B00009F4A4CFE1E2F5E08091C00085FFFCCFD7
:1041C0009093C6009491992309F498CF3196F4CF37
:1041D00081E0D9CE8130910511F1029709F0AECE80
:1041E000C757DF4F88819981C958D040009719F18E
:1041F000C957DF4F68817981C758D0400E94D817CE
:10420000892B09F408CFCA57DF4FF881C658D04030
:10421000FF5FCA57DF4FF883C658D0408FCEC557CF
:10422000DF4FE881F981CB58D040808191810196A0
:104230009183808383CECA57DF4F9881C658D04080
:10424000292F30E0C557DF4FE881F981CB58D040A6
:104250008081918128173907B1F6DDCEAF92BF92E8
:10426000CF92DF92EF92FF920F931F93DF93CF9342
:10427000CDB7DEB76F970FB6F894DEBF0FBECDBFD8
:104280007C018C01025B1F4F805B9F4FF801918383
:10429000808328E832E0E20EF31E21E030E0F701EF
:1042A0003183208328E73DEFE20EF31E6AE8C62E35
:1042B00062E0D62ECE0CDF1CF6011182108204962D
:1042C00040E050E060E070E00E94B48BF801208193
:1042D00031818E010B5F1F4FD801F90134968BE1BC
:1042E00001900D928150E1F7F901828193819C83C5
:1042F0008B8354E3A52E54E0B52EBA82A982C70160
:1043000064E072E0AE014F5F5F4F20E030E00E945A
:104310002E1F8885882329F0BA82A982C8010E94AD
:10432000D38CF601808191816F960FB6F894DEBF31
:104330000FBECDBFCF91DF911F910F91FF90EF90F6
:10434000DF90CF90BF90AF9008956F927F928F9241
:104350009F92AF92BF92CF92DF92EF92FF920F9314
:104360001F93DF93CF93CDB7DEB76F970FB6F89457
:10437000DEBF0FBECDBF7C018B0127E530E0E20E32
:10438000F31ED7018C91E9EAFFEFEE0EFF1E8823A2
:1043900009F0E6C0BFE2CB2ED12CCE0CDF1CF4E33B
:1043A0006F2EF4E07F2E7A8269821C821B8218862F
:1043B0001D82E5E08E2E912C8C0E9D1E74E0A72EA2
:1043C000B12CAC0CBD1CC401B501A80121E00E94B8
:1043D0004E94882309F04FC0E3EEF2E094919923C4
:1043E00051F031968091C00085FFFCCF9093C600BC
:1043F00094919923B1F7EDECF2E09491992351F067
:1044000031968091C00085FFFCCF9093C6009491B7
:104410009923B1F7F8019081992361F00F5F1F4F45
:104420008091C00085FFFCCF9093C600D8019C917D
:104430009923A1F78AEF99E00E94F96E8885882375
:1044400029F07A826982C4010E94D38C6F960FB6DC
:10445000F894DEBF0FBECDBFCF91DF911F910F91BA
:10446000FF90EF90DF90CF90BF90AF909F908F9094
:104470007F906F900895F701EB55FE4F20813181B9
:104480002A30310508F059C0C90101969183808313
:10449000AC0189018FE190E0089F9001099F300DE8
:1044A000189F300D11242D583F4F2E0D3F1D6FE1E9
:1044B00070E0469FF001479FF00D569FF00D1124CC
:1044C000EE0DFF1DED58FF4FD9018BE10D900192CC
:1044D0008150E1F7469FF001479FF00D569FF00D88
:1044E0001124EE0DFF1DEF58FF4FD9019E918E91C3
:1044F0009D01918380832D513040A80101501040CF
:10450000BFEF0F3F1B07A9F6D701AD58BF4FF5010D
:104510008BE101900D928150E1F7E1E7F0E0EE0EC2
:10452000FF1ED60112968D919C911397F7019183EE
:1045300080832FE83FEFE20EF31ED701AC5ABF4F46
:10454000F4018BE101900D928150E1F782E590E05A
:10455000E80EF91E8B819C81D7018D939C936ECFC1
:10456000A0E5CA2ED12CCE0CDF1C19CFAF92BF9282
:10457000CF92DF92EF92FF920F931F93DF93CF932F
:10458000CDB7DEB76F970FB6F894DEBF0FBECDBFC5
:104590007C016A018C01025B1F4F805B9F4FF80119
:1045A0009183808328E832E0E20EF31E22E030E0BF
:1045B000F701219331937F017183608326E73DEFFB
:1045C000E20EF31E049640E050E060E070E00E94CE
:1045D000B48BF801208131818E010B5F1F4FD80110
:1045E000F90134968BE101900D928150E1F7F901C8
:1045F000828193819C838B8384E3A82E84E0B82EF0
:10460000BA82A982C70164E072E0AE014F5F5F4FDA
:1046100096010E942E1F8885882329F0BA82A982DC
:10462000C8010E94D38C6F960FB6F894DEBF0FBE00
:10463000CDBFCF91DF911F910F91FF90EF90DF9051
:10464000CF90BF90AF900895CF92DF92EF92FF92FC
:104650000F931F93DF93CF93CDB7DEB76F970FB64E
:10466000F894DEBF0FBECDBF7C0188E892E0E80E73
:10467000F91EF7011182108288E79DEFE80EF91EFE
:1046800087010D5C1F4FC80140E050E060E070E022
:104690000E94B48B95E0C92ED12CCC0EDD1ED60124
:1046A000F8018BE101900D928150E1F7F70181A9AA
:1046B00092A99C838B8304E314E01A830983C701C6
:1046C00064E072E0AE014F5F5F4F20E030E00E9497
:1046D0002E1F8885882329F01A830983C6010E942A
:1046E000D38C6F960FB6F894DEBF0FBECDBFCF91BF
:1046F000DF911F910F91FF90EF90DF90CF90089581
:104700002F923F924F925F926F927F928F929F92E1
:10471000AF92BF92CF92DF92EF92FF920F931F93CF
:10472000DF93CF93CDB7DEB7AE970FB6F894DEBF69
:104730000FBECDBF5C012B014DA70EA7DC01139668
:104740008C91882309F495C0E1EDF1E0AE0EBF1E17
:10475000D5018C91EFE2FEEFAE0EBF1E882309F06B
:10476000A1C0E9EEF1E0AE0EBF1ED5011C92E7E15B
:10477000FEEFAE0EBF1ED50112961C921A8A1D8A3C
:10478000198A188AE4E3F4E0FF87EE874EE4842E6A
:10479000912C8A0C9B1C4FE250E0A40EB51ED40154
:1047A000AD92BC92E1EDFFEFAE0EBF1ED2018C9137
:1047B0008F3209F41FC180E590E0A80EB91ED40124
:1047C000AD92BC92E0EBFFEFAE0EBF1E7201FDA5F5
:1047D000FF2309F4A2C0D4016D917C91611571058C
:1047E00009F44CC26C5F7F4FC50182539E4FA701F5
:1047F00021E00E944E94882309F086C1E8E4F4E0A9
:104800009491992351F031968091C00085FFFCCF9F
:104810009093C60094919923B1F7E4E3F4E0949166
:10482000992351F031968091C00085FFFCCF909381
:10483000C60094919923B1F7F7019081992351F023
:1048400031968091C00085FFFCCF9093C600908187
:104850009923B1F78AEF99E00E94F96E44E354E09E
:104860005F874E878D89882321F0CE0142960E9472
:10487000D38CAE960FB6F894DEBF0FBECDBFCF91EE
:10488000DF911F910F91FF90EF90DF90CF90BF903D
:10489000AF909F908F907F906F905F904F903F90E0
:1048A0002F900895222309F09FC069EEE62E61E063
:1048B000F62EEA0CFB1CD7018C91882309F46EC0FC
:1048C000E6ECF4E09491992351F031968091C00088
:1048D00085FFFCCF9093C60094919923B1F7E3E84C
:1048E000F4E09491992351F031968091C00085FFB6
:1048F000FCCF9093C60094919923B1F78AEF99E089
:1049000061E070E04AE050E00E94E66E8AEF99E0D4
:104910000E94F96E0E94523DACCFD4016D917C9102
:104920006115710509F4ADC16C5F7F4FC5018253FC
:104930009E4FA70126E50E944E94882309F0A7C048
:10494000E8E1F4E09491992351F031968091C00010
:1049500085FFFCCF9093C60094919923B1F7E4E0D2
:10496000F4E09491992351F031968091C00085FF35
:10497000FCCF9093C60094919923B1F7F7019081F1
:10498000992309F467CF31968091C00085FFFCCF51
:104990009093C60090819923B1F75CCFB501625125
:1049A0007E4FC5010E94511CF7012081E22FF0E0EB
:1049B000EE0FFF1FEE0FFF1FEA0DFB1DE651FE4F2E
:1049C00043E852E0A40EB51ED5014D915D916D9165
:1049D0007C918DE79DEFA80EB91E408351836283C1
:1049E00073832F5FD7012C93C50182539E4F0E9482
:1049F000D38CC1CE62010894C11CD11CC114D10456
:104A000009F405C13E010894611C711C32E1232E9A
:104A1000312C2C0E3D1E19C06C5F7F4FC101A301CC
:104A200021E00E944E94882309F4F3C04EE050E048
:104A30004C0F5D1FF4015183408367010894C11C32
:104A4000D11CC114D10409F4E2C0C6016FE270E0C8
:104A50000E94F6177C01009709F4D7C0C816D90642
:104A600008F0D3C08C010C191D09C301B601A801BF
:104A70000E941F18060D171DF8011082D4016D91B8
:104A80007C916115710541F660E070E0C7CF81E06F
:104A9000F5018083E1E3F4E09491992351F031969C
:104AA0008091C00085FFFCCF9093C600949199231C
:104AB000B1F7EFE1F4E09491992351F031968091B0
:104AC000C00085FFFCCF9093C60094919923B1F765
:104AD000D2019C91992359F0F20131968091C00046
:104AE00085FFFCCF9093C60090819923B1F78AEFA0
:104AF00099E00E94F96EBEA5BB2309F4AFCEC701B1
:104B000060E00E9494C6AACEEFEDF1E0AE0EBF1EAB
:104B1000D5014D915D916D917C91ECE9F0E0AE0E87
:104B2000BF1ED5014D935D936D937C931397E5E87C
:104B3000FDEFAE0EBF1EE5E6F4E09491992351F02F
:104B400031968091C00085FFFCCF9093C600949170
:104B50009923B1F7E7E5F4E09491992351F0319668
:104B60008091C00085FFFCCF9093C600949199235B
:104B7000B1F7D7019C91992359F0F70131968091B3
:104B8000C00085FFFCCF9093C60090819923B1F7B8
:104B9000EFE4F4E09491992351F031968091C000B4
:104BA00085FFFCCF9093C60094919923B1F78AEFCB
:104BB00099E02AE030E00E94826E8AEF99E00E943C
:104BC000F96EE3E8F2E0AE0EBF1ED5011D921D9214
:104BD0001D921C921397EDE7FDEFAE0EBF1EC501AF
:104BE00060E070E0A7010E94B622FEA5FF2309F451
:104BF00035CED50152968C91882309F480CF22E1DD
:104C0000E22EF12CEA0CFB1C7ACF7601E0CD72018A
:104C1000DECDECE7F4E09491992351F03196809148
:104C2000C00085FFFCCF9093C60094919923B1F703
:104C3000E8E6F4E09491992351F031968091C00018
:104C400085FFFCCF9093C60094919923B1F7998189
:104C5000992359F0F30131968091C00085FFFCCF74
:104C60009093C60090819923B1F78AEF99E00E9452
:104C7000F96ECE010E960E943B1BFBCD60E070E00A
:104C8000B3CD60E070E052CECF92DF92EF92FF9210
:104C90000F93CF93DF93EC010E94B89B09EEC02ED7
:104CA00001E0D02ECC0EDD1ED6018C91882309F4B4
:104CB00042C0BEECEB2EB1E0FB2EEC0EFD1EC70198
:104CC0000E94D38CF6016081615060838DE8689FFB
:104CD000B001112462517E4F6C0F7D1FCE0141E067
:104CE00021E001E00E948023D601EC91F0E0EE0F7C
:104CF000FF1FEE0FFF1FEC0FFD1FE651FE4F40811F
:104D0000518162817381CD57DD4F488359836A8316
:104D10007B83C358D240C7010E94B48B8B81882308
:104D200011F081E08A83DF91CF910F91FF90EF9096
:104D3000DF90CF900895CE0182539E4F0E94D38C76
:104D40001A8281EC92E00E943F488091770A882382
:104D500051F31092770A80918A07C82FD0E0CC0FC8
:104D6000DD1FC653DE4E68817981882777FD8095E7
:104D7000982F0E9446FF2091C1023091C2024091BB
:104D8000C3025091C4020F94B200181664F619823F
:104D90001882DF91CF910F91FF90EF90DF90CF902D
:104DA00008950F93FC0181E08183CF0140E021E071
:104DB00001E00E9480230F9108952F923F924F921D
:104DC0005F926F927F928F929F92AF92BF92CF929B
:104DD000DF92EF92FF920F931F93DF93CF93CDB7A4
:104DE000DEB7AC970FB6F894DEBF0FBECDBF5C0147
:104DF0003B01FC0183818823C9F4AC960FB6F8947B
:104E0000DEBF0FBECDBFCF91DF911F910F91FF90FD
:104E1000EF90DF90CF90BF90AF909F908F907F905A
:104E20006F905F904F903F902F900895C5018253EF
:104E30009E4F0E94D38CF50112821A8A1D8A198A0C
:104E4000188A84E394E09F878E879EE4892E912CB4
:104E50008A0C9B1CEFE2F0E0AE0EBF1EF401B182A3
:104E6000A08281ED9FEFA80EB91EF30180818F32E1
:104E700009F493C0E0E5F0E0AE0EBF1EF401B1828C
:104E8000A08280EB9FEFA80EB91E8301F401808100
:104E90009181009709F47EC00496B8010E94219583
:104EA000882309F446C0E6EEF3E09491992351F08B
:104EB00031968091C00085FFFCCF9093C6009491FD
:104EC0009923B1F7E8EDF3E09491992351F03196ED
:104ED0008091C00085FFFCCF9093C60094919923E8
:104EE000B1F7F8019081992351F031968091C0007B
:104EF00085FFFCCF9093C60090819923B1F78AEF8C
:104F000099E00E94F96E83E892E0A80EB91EF501BF
:104F1000108211821282138284E394E09F878E872D
:104F20008D89882309F469CFCE0142960E94D38CE3
:104F300064CFE1EDF3E09491992351F031968091A3
:104F4000C00085FFFCCF9093C60094919923B1F7E0
:104F5000E9EBF3E09491992351F031968091C000F0
:104F600085FFFCCF9093C60094919923B1F7F80187
:104F70009081992351F031968091C00085FFFCCF3C
:104F80009093C60090819923B1F78AEF99E00E942F
:104F9000F96EC2CF80E090E080CFC3016FE270E095
:104FA0000E94F6177C010894E11CF11CE114F10445
:104FB00009F46BCF2E010894411C511C82E1282E6C
:104FC000312C2C0E3D1E1CC06C5F7F4FC40CD51CB9
:104FD000F6011082C101A20121E00E944E948823B3
:104FE00069F18EE090E08C0F9D1FF4019183808326
:104FF00078010894E11CF11CE114F10409F453C098
:10500000C7016FE270E00E94F6178C010097A1F0D3
:10501000E816F90688F46C01CE18DF08C201B70162
:10502000A6010E941F18F40160817181611571054C
:1050300059F660E070E0CACF870128CFEDEFF3E0CA
:105040009491992351F031968091C00085FFFCCF57
:105050009093C60094919923B1F7E9EEF3E094910F
:10506000992351F031968091C00085FFFCCF909339
:10507000C60094919923B1F79981992359F0F201CF
:1050800031968091C00085FFFCCF9093C60090813F
:105090009923B1F78AEF99E00E94F96ECE010E963E
:1050A0000E943B1BAACE8301CE010E96F5CEDC01F9
:1050B000FB018D919C911197F999FECF92BD81BD15
:1050C000F89A80B580838D919C91119701961196E5
:1050D0009C938E93415011F03196EECF0895EF924C
:1050E000FF920F931F93DF93CF93CDB7DEB72A972D
:1050F0000FB6F894DEBF0FBECDBF88E592E09A836D
:1051000089838091050290910602A0910702B091D7
:1051100008028F839887A987BA878E010D5F1F4F7A
:105120007E010894E11CF11CC701B80144E00E9413
:105130005728CE010796B80143E050E00E941118AD
:105140000097A9F010929E0710929F071092A00757
:105150001092A1072A960FB6F894DEBF0FBECDBFFE
:10516000CF91DF911F910F91FF90EF900895C701AC
:105170006EE977E044E00E945728ECCFCF92DF92AF
:10518000EF92FF920F931F93CF93DF938C014423F1
:1051900009F453C04150FC0120813181EB01E4EA64
:1051A000F9E0D490EBE8F9E0C4907B01E40EF11C47
:1051B0009881F999FECF1FBA32BD21BD90BD0FB6BF
:1051C000F894FA9AF99A0FBEF999FECF32BD21BD33
:1051D000F89A80B59817B9F09D2DDD20F1F0E5EA39
:1051E000F9E08091C00085FFFCCF9093C6009491B8
:1051F000992399F03196F5CF8AEF99E00E94F96EE4
:10520000F801208131812F5F3F4FF80131832083E6
:10521000CE15DF0591F02196CBCF9C2DCC2061F3EC
:10522000ECE8F9E08091C00085FFFCCF9093C600C8
:105230009491992309F33196F5CFDF91CF911F9186
:105240000F91FF90EF90DF90CF900895EF92FF9233
:105250000F931F93DF93CF93CDB7DEB72C970FB685
:10526000F894DEBF0FBECDBF88E5E82E82E0F82EB1
:10527000FA82E9828091090290910A02A0910B02C0
:10528000B0910C028D839E83AF83B8878E010F5F30
:105290001F4FC801BE016B5F7F4F44E00E94BE28D4
:1052A000C8016EE977E044E00E94BE2880910502C3
:1052B00090910602A0910702B091080289879A870F
:1052C000AB87BC87FC82EB82CE010396BE01675F91
:1052D0007F4F44E00E94BE280E94EFFA6093A2072D
:1052E0007093A3078093A4079093A5072C960FB6FD
:1052F000F894DEBF0FBECDBFCF91DF911F910F910C
:10530000FF90EF9008952F923F924F925F926F928D
:105310007F928F929F92AF92BF92CF92DF92EF9245
:10532000FF920F931F93DF93CF93CDB7DEB76E97A6
:105330000FB6F894DEBF0FBECDBF80E090E0A0E0D6
:10534000B0E08F839887A987BA87809109029091EE
:105350000A02A0910B02B0910C028B879C87AD874B
:10536000BE8784E690E09A8389836E010894C11C0D
:10537000D11CC601BE01655F7F4F44E00E94BE287C
:10538000C6016BE17AE044E10E94BE28C6016FEFDE
:1053900079E044E10E94BE28C60163E17AE048E07A
:1053A0000E94BE28C6016FE27AE044E10E94BE2856
:1053B000C60167E47AE044E00E94BE28C6016BE4BF
:1053C0007AE044E00E94BE28C6016FE47AE044E03F
:1053D0000E94BE28C60163E47AE044E00E94BE2831
:1053E000C6016FE57AE044E00E94BE28C6016BEF7B
:1053F00079E044E00E94BE28C60163E57AE044E01B
:105400000E94BE28C60167E57AE044E00E94BE28FB
:10541000C6016BE57AE044E00E94BE28C6016EE753
:1054200077E04CE00E94BE28C60166EA77E044E0DF
:105430000E94BE28C6016AEA77E040E10E94BE28C9
:10544000C60167EB72E142E00E94BE28C60169EB2B
:1054500072E142E00E94BE28C6016BEB72E142E0BD
:105460000E94BE28C6016DEB72E142E00E94BE2898
:10547000C6016FEB72E142E00E94BE28C60161ECFA
:1054800072E142E00E94BE28C60163EC72E142E094
:105490000E94BE28C60165EC72E142E00E94BE286F
:1054A000C60167EC72E142E00E94BE2837E0A32EFD
:1054B000B12CAC0EBD1EEE24FF240F2EF0E06F2E9B
:1054C000F0E87F2EFBE38F2EF5E49F2EF02D0F2EBC
:1054D000F0E02F2EF0E03F2EF0E04F2EF0E05F2EB8
:1054E000F02D82E0E816F1040CF4F2C06F827886A9
:1054F00089869A86C601B50144E00E94BE282F82A3
:10550000388649865A86C601B50144E00E94BE2805
:10551000C601B50144E00E94BE28C601B50144E0C1
:105520000E94BE280894E11CF11C94E0E916F104E5
:10553000C1F680E090E8ABE3B5E48F87988BA98B48
:10554000BA8B8B8B9C8BAD8BBE8B8F8B988FA98FDF
:10555000BA8FC601BE01615F7F4F44E00E94BE2842
:10556000C601BE016D5E7F4F44E00E94BE28C601A9
:10557000BE01695E7F4F44E00E94BE2880E290E059
:105580009C838B83C601BE016D5F7F4F42E00E940A
:10559000BE2880E090E0A0E8BFE38F839887A987CA
:1055A000BA87C601B50144E00E94BE28C6016DE776
:1055B00077E041E00E94BE2895E8E92E92E0F92EBE
:1055C00000E010E0023011050CF478C0C601B5010E
:1055D00044E00E94BE280F5F1F4F84E090E0E80E79
:1055E000F91E0430110571F780910D0290910E02A1
:1055F000A0910F02B09110028B8F9C8FAD8FBE8F48
:1056000084E690E09E838D83CE010596BE01655EA3
:105610007F4F44E00E94BE28E4E8F9E0949199238A
:1056200051F031968091C00085FFFCCF9093C60069
:1056300094919923B1F7E2E7F9E09491992351F01D
:1056400031968091C00085FFFCCF9093C600949165
:105650009923B1F769817A818AEF99E04AE050E0B5
:105660000E94E66EEAE6F9E09491992351F03196B2
:105670008091C00085FFFCCF9093C6009491992340
:10568000B1F78AEF99E00E94F96E6E960FB6F89422
:10569000DEBF0FBECDBFCF91DF911F910F91FF9065
:1056A000EF90DF90CF90BF90AF909F908F907F90C2
:1056B0006F905F904F903F902F900895F7018081F9
:1056C0009181A281B3818F839887A987BA877ECF82
:1056D0008701000F111F000F111FB8016D507E4E82
:1056E000C60144E00E94BE28B80165507E4EC60146
:1056F00044E00E94BE280D5F1D4EC601B80144E083
:105700000E94BE280FCF8F929F92AF92BF92CF92EE
:10571000DF92EF92FF920F931F93DF93CF93CDB75A
:10572000DEB76E970FB6F894DEBF0FBECDBF882EE2
:10573000882311F5EEE0F9E09491992351F0319628
:105740008091C00085FFFCCF9093C600949199236F
:10575000B1F7EEEFF8E09491992351F031968091F2
:10576000C00085FFFCCF9093C60094919923B1F7B8
:105770008AEF99E00E94F96EE7EFF8E0949199239F
:1057800051F031968091C00085FFFCCF9093C60008
:1057900094919923B1F7EFEEF8E09491992351F0A9
:1057A00031968091C00085FFFCCF9093C600949104
:1057B0009923B1F740911B0A50911C0A60911D0A70
:1057C00070911E0A8AEF99E022E030E00E94CF6FCC
:1057D000ECEEF8E09491992351F031968091C0005D
:1057E00085FFFCCF9093C60094919923B1F7409127
:1057F0001F0A5091200A6091210A7091220A8AEFB3
:1058000099E022E030E00E94CF6FE9EEF8E0949159
:10581000992351F031968091C00085FFFCCF909381
:10582000C60094919923B1F74091230A5091240A1C
:105830006091250A7091260A8AEF99E022E030E013
:105840000E94CF6FE3EEF8E09491992351F03196E6
:105850008091C00085FFFCCF9093C600949199235E
:10586000B1F74091270A5091280A6091290A709156
:105870002A0A8AEF99E022E030E00E94CF6FEDED36
:10588000F8E09491992351F031968091C00085FF02
:10589000FCCF9093C60094919923B1F740912B0AC5
:1058A00050912C0A60912D0A70912E0A8AEF99E08E
:1058B00022E030E00E94CF6F8AEF99E00E94F96EFB
:1058C000882011F5E6EDF8E09491992351F0319696
:1058D0008091C00085FFFCCF9093C60094919923DE
:1058E000B1F7ECEBF8E09491992351F03196809167
:1058F000C00085FFFCCF9093C60094919923B1F727
:105900008AEF99E00E94F96EE5EBF8E09491992313
:1059100051F031968091C00085FFFCCF9093C60076
:1059200094919923B1F7ECEAF8E09491992351F01E
:1059300031968091C00085FFFCCF9093C600949172
:105940009923B1F74091FF095091000A6091010A33
:105950007091020A8AEF99E022E030E00E94CF6F56
:10596000E9EAF8E09491992351F031968091C000D2
:1059700085FFFCCF9093C60094919923B1F7409195
:10598000030A5091040A6091050A7091060A8AEF91
:1059900099E022E030E00E94CF6FE6EAF8E09491CF
:1059A000992351F031968091C00085FFFCCF9093F0
:1059B000C60094919923B1F74091070A5091080AC3
:1059C0006091090A70910A0A8AEF99E022E030E0BA
:1059D0000E94CF6FE0EAF8E09491992351F031965C
:1059E0008091C00085FFFCCF9093C60094919923CD
:1059F000B1F740910B0A50910C0A60910D0A709119
:105A00000E0A8AEF99E022E030E00E94CF6FEAE9C7
:105A1000F8E09491992351F031968091C00085FF70
:105A2000FCCF9093C60094919923B1F740910F0A4F
:105A30005091100A6091110A7091120A8AEF99E050
:105A400022E030E00E94CF6F8AEF99E00E94F96E69
:105A5000882011F5E3E9F8E09491992351F031960B
:105A60008091C00085FFFCCF9093C600949199234C
:105A7000B1F7E8E7F8E09491992351F031968091DD
:105A8000C00085FFFCCF9093C60094919923B1F795
:105A90008AEF99E00E94F96EE1E7F8E0949199238A
:105AA00051F031968091C00085FFFCCF9093C600E5
:105AB00094919923B1F7EBE6F8E09491992351F092
:105AC00031968091C00085FFFCCF9093C6009491E1
:105AD0009923B1F74091130A5091140A6091150A65
